:020000040000fa
:080000000002040000000000f2
:020000040000fa
:04000800c40300002d
:020000040000fa
:04000c0042030000ab
:020000040000fa
:040010008403000065
:020000040000fa
:040014006203000083
:020000040000fa
:04001800a40300003d
:020000040000fa
:04001c00c403000019
:020000040000fa
:04002000c403000015
:020000040000fa
:04002400c403000011
:020000040000fa
:04002800c40300000d
:020000040000fa
:04002c00c403000009
:020000040000fa
:04003000c403000005
:020000040000fa
:040034000c030000b9
:020000040000fa
:04003800c4030000fd
:020000040000fa
:04003c00c4030000f9
:020000040000fa
:04004000c4030000f5
:020000040000fa
:04004400c4030000f1
:020000040000fa
:04004800c4030000ed
:020000040000fa
:04004c00c4030000e9
:020000040000fa
:04005000c4030000e5
:020000040000fa
:04005400c4030000e1
:020000040000fa
:04005800c4030000dd
:020000040000fa
:04005c00c4030000d9
:020000040000fa
:04006000c4030000d5
:020000040000fa
:04006400c4030000d1
:020000040000fa
:04006800c4030000cd
:020000040000fa
:04006c00c4030000c9
:020000040000fa
:04007000c4030000c5
:020000040000fa
:04007400c4030000c1
:020000040000fa
:04007800c4030000bd
:020000040000fa
:04007c00c4030000b9
:020000040000fa
:04008000c4030000b5
:020000040000fa
:04008400c4030000b1
:020000040000fa
:04008800c4030000ad
:020000040000fa
:04008c00c4030000a9
:020000040000fa
:04009000c4030000a5
:020000040000fa
:04009400c4030000a1
:020000040000fa
:04009800c40300009d
:020000040000fa
:04009c00c403000099
:020000040000fa
:0400a000c403000095
:020000040000fa
:0400a400c403000091
:020000040000fa
:0400a800c40300008d
:020000040000fa
:0400ac00c403000089
:020000040000fa
:0400b000c403000085
:020000040000fa
:0400b400c403000081
:020000040000fa
:0400b800c40300007d
:020000040000fa
:0400bc00c403000079
:020000040000fa
:0400c000c403000075
:020000040000fa
:0400c400c403000071
:020000040000fa
:0400c800c40300006d
:020000040000fa
:0400cc00c403000069
:020000040000fa
:0400d000c403000065
:020000040000fa
:0400d400c403000061
:020000040000fa
:0400d800c40300005d
:020000040000fa
:0400dc00c403000059
:020000040000fa
:0400e000c403000055
:020000040000fa
:0400e400c403000051
:020000040000fa
:0400e800c40300004d
:020000040000fa
:0400ec00c403000049
:020000040000fa
:0400f000c403000045
:020000040000fa
:0400f400c403000041
:020000040000fa
:0400f800c40300003d
:020000040000fa
:0400fc00c403000039
:020000040000fa
:04010000c403000034
:020000040000fa
:04010400c403000030
:020000040000fa
:04010800c40300002c
:020000040000fa
:04010c00c403000028
:020000040000fa
:04011000c403000024
:020000040000fa
:04011400c403000020
:020000040000fa
:04011800c40300001c
:020000040000fa
:04011c00c403000018
:020000040000fa
:04012000c403000014
:020000040000fa
:04012400c403000010
:020000040000fa
:04012800c40300000c
:020000040000fa
:04012c00c403000008
:020000040000fa
:04013000c403000004
:020000040000fa
:04013400c403000000
:020000040000fa
:04013800c4030000fc
:020000040000fa
:04013c00c4030000f8
:020000040000fa
:04014000c4030000f4
:020000040000fa
:04014400c4030000f0
:020000040000fa
:04014800c4030000ec
:020000040000fa
:04014c00c4030000e8
:020000040000fa
:04015000c4030000e4
:020000040000fa
:04015400c4030000e0
:020000040000fa
:04015800c4030000dc
:020000040000fa
:04015c00c4030000d8
:020000040000fa
:04016000c4030000d4
:020000040000fa
:04016400c4030000d0
:020000040000fa
:04016800c4030000cc
:020000040000fa
:04016c00c4030000c8
:020000040000fa
:04017000c4030000c4
:020000040000fa
:04017400c4030000c0
:020000040000fa
:04017800c4030000bc
:020000040000fa
:04017c00c4030000b8
:020000040000fa
:04018000c4030000b4
:020000040000fa
:04018400c4030000b0
:020000040000fa
:04018800c4030000ac
:020000040000fa
:04018c00c4030000a8
:020000040000fa
:04019000c4030000a4
:020000040000fa
:04019400c4030000a0
:020000040000fa
:04019800c40300009c
:020000040000fa
:04019c00c403000098
:020000040000fa
:0401a000c403000094
:020000040000fa
:0401a400c403000090
:020000040000fa
:0401a800c40300008c
:020000040000fa
:0401ac00c403000088
:020000040000fa
:0401b000c403000084
:020000040000fa
:0401b400c403000080
:020000040000fa
:0401b800c40300007c
:020000040000fa
:0401bc00c403000078
:020000040000fa
:0401c000c403000074
:020000040000fa
:0401c400c403000070
:020000040000fa
:0401c800c40300006c
:020000040000fa
:0401cc00c403000068
:020000040000fa
:0401d000c403000064
:020000040000fa
:0401d400c403000060
:020000040000fa
:0401d800c40300005c
:020000040000fa
:0401dc00c403000058
:020000040000fa
:0401e000c403000054
:020000040000fa
:0401e400c403000050
:020000040000fa
:0401e800c40300004c
:020000040000fa
:0401ec00c403000048
:020000040000fa
:0401f000c403000044
:020000040000fa
:0401f400c403000040
:020000040000fa
:0401f800c40300003c
:020000040000fa
:0401fc00c403000038
:020000040000fa
:04020800c40300002b
:020000040000fa
:04020c0042030000a9
:020000040000fa
:040210008403000063
:020000040000fa
:040214006203000081
:020000040000fa
:04021800a40300003b
:020000040000fa
:04021c00c403000017
:020000040000fa
:04022000c403000013
:020000040000fa
:04022400c40300000f
:020000040000fa
:04022800c40300000b
:020000040000fa
:04022c00c403000007
:020000040000fa
:04023000c403000003
:020000040000fa
:040234000c030000b7
:020000040000fa
:04023800c4030000fb
:020000040000fa
:04023c00c4030000f7
:020000040000fa
:04024000c4030000f3
:020000040000fa
:04024400c4030000ef
:020000040000fa
:04024800c4030000eb
:020000040000fa
:04024c00c4030000e7
:020000040000fa
:04025000c4030000e3
:020000040000fa
:04025400c4030000df
:020000040000fa
:04025800c4030000db
:020000040000fa
:04025c00c4030000d7
:020000040000fa
:04026000c4030000d3
:020000040000fa
:04026400c4030000cf
:020000040000fa
:04026800c4030000cb
:020000040000fa
:04026c00c4030000c7
:020000040000fa
:04027000c4030000c3
:020000040000fa
:04027400c4030000bf
:020000040000fa
:04027800c4030000bb
:020000040000fa
:04027c00c4030000b7
:020000040000fa
:04028000c4030000b3
:020000040000fa
:04028400c4030000af
:020000040000fa
:04028800c4030000ab
:020000040000fa
:04028c00c4030000a7
:020000040000fa
:04029000c4030000a3
:020000040000fa
:04029400c40300009f
:020000040000fa
:04029800c40300009b
:020000040000fa
:04029c00c403000097
:020000040000fa
:0402a000c403000093
:020000040000fa
:0402a400c40300008f
:020000040000fa
:0402a800c40300008b
:020000040000fa
:0402ac00c403000087
:020000040000fa
:0402b000c403000083
:020000040000fa
:0402b400c40300007f
:020000040000fa
:0402b800c40300007b
:020000040000fa
:0402bc00c403000077
:020000040000fa
:0402c000c403000073
:020000040000fa
:0402c400c40300006f
:020000040000fa
:0402c800c40300006b
:020000040000fa
:0402cc00c403000067
:020000040000fa
:0402d000c403000063
:020000040000fa
:0402d400c40300005f
:020000040000fa
:0402d800c40300005b
:020000040000fa
:0402dc00c403000057
:020000040000fa
:0402e000c403000053
:020000040000fa
:0402e400c40300004f
:020000040000fa
:0402e800c40300004b
:020000040000fa
:0402ec00c403000047
:020000040000fa
:0402f000c403000043
:020000040000fa
:0402f400c40300003f
:020000040000fa
:0402f800c40300003b
:020000040000fa
:0402fc00c403000037
:020000040000fa
:04030000c403000032
:020000040000fa
:04030400c40300002e
:020000040000fa
:04030800c40300002a
:020000040000fa
:04030c00c403000026
:020000040000fa
:04031000c403000022
:020000040000fa
:04031400c40300001e
:020000040000fa
:04031800c40300001a
:020000040000fa
:04031c00c403000016
:020000040000fa
:04032000c403000012
:020000040000fa
:04032400c40300000e
:020000040000fa
:04032800c40300000a
:020000040000fa
:04032c00c403000006
:020000040000fa
:04033000c403000002
:020000040000fa
:04033400c4030000fe
:020000040000fa
:04033800c4030000fa
:020000040000fa
:04033c00c4030000f6
:020000040000fa
:04034000c4030000f2
:020000040000fa
:04034400c4030000ee
:020000040000fa
:04034800c4030000ea
:020000040000fa
:04034c00c4030000e6
:020000040000fa
:04035000c4030000e2
:020000040000fa
:04035400c4030000de
:020000040000fa
:04035800c4030000da
:020000040000fa
:04035c00c4030000d6
:020000040000fa
:04036000c4030000d2
:020000040000fa
:04036400c4030000ce
:020000040000fa
:04036800c4030000ca
:020000040000fa
:04036c00c4030000c6
:020000040000fa
:04037000c4030000c2
:020000040000fa
:04037400c4030000be
:020000040000fa
:04037800c4030000ba
:020000040000fa
:04037c00c4030000b6
:020000040000fa
:04038000c4030000b2
:020000040000fa
:04038400c4030000ae
:020000040000fa
:04038800c4030000aa
:020000040000fa
:04038c00c4030000a6
:020000040000fa
:04039000c4030000a2
:020000040000fa
:04039400c40300009e
:020000040000fa
:04039800c40300009a
:020000040000fa
:04039c00c403000096
:020000040000fa
:0403a000c403000092
:020000040000fa
:0403a400c40300008e
:020000040000fa
:0403a800c40300008a
:020000040000fa
:0403ac00c403000086
:020000040000fa
:0403b000c403000082
:020000040000fa
:0403b400c40300007e
:020000040000fa
:0403b800c40300007a
:020000040000fa
:0403bc00c403000076
:020000040000fa
:0403c000c403000072
:020000040000fa
:0403c400c40300006e
:020000040000fa
:0403c800c40300006a
:020000040000fa
:0403cc00c403000066
:020000040000fa
:0403d000c403000062
:020000040000fa
:0403d400c40300005e
:020000040000fa
:0403d800c40300005a
:020000040000fa
:0403dc00c403000056
:020000040000fa
:0403e000c403000052
:020000040000fa
:0403e400c40300004e
:020000040000fa
:0403e800c40300004a
:020000040000fa
:0403ec00c403000046
:020000040000fa
:0403f000c403000042
:020000040000fa
:0403f400c40300003e
:020000040000fa
:0403f800c40300003a
:020000040000fa
:0403fc00c403000036
:020000040000fa
:100400006f8220000e7f22000e0188000000000095
:10041000000020000000e000020032000001200087
:100420002002880014000700d90007000000e00047
:1004300003003a00e05120000100200002003700d4
:100440000000200001002000810f70000100320038
:1004500014000700000020000000e000020032004d
:100460000000020000000000120502000000000071
:100470000040da000000fe004440a90020002000f7
:100480000000e0000300320010002000900188000e
:100490004440a800000006008a1f78008b1f7800e7
:1004a00000000600a1028800800478000000eb0034
:1004b0001f003700e284440054a0b4009905ba003c
:1004c000e284440054a0b4009906ba00e2844400d7
:1004d00054a0b4000006eb00476fde00fd07b20039
:1004e000ae018800636ce10003003a00eaff0700f8
:1004f0000000eb000e003700606ce10008003a00dd
:10050000004deb000a05e800020039003420ec0041
:100510000af0a0008b05e900f9ff3e000400370057
:100520006168e100010032000086eb000b0007006b
:1005300019c7ba001905ba000e04e00003003a001a
:100540000a00e000dbff3a0000000600fe07b200f0
:10055000ae0288008a047800f5ff37000cd0a300b3
:10056000e20f4d001c00390089027800354dba00b9
:100570000a05e800020039003420ec000af0a0006f
:100580008b05e9000f003200254dba000a05e8008e
:10059000020039003420ec000af0a0008b05e900cd
:1005a000080032000c00e0000600320015cdba0051
:1005b0000a05e800020039003420ec000af0a0002f
:1005c0008b05e9008984e80054a0b4000b00e0002a
:1005d000e2ff3a00000006009902ba00055d7800cb
:1005e0008b05e900f7ff3200c82ade00055d7800c0
:1005f0008b05e900f3ff32000c00e000f1ff320050
:1006000019ddba00eeff37002204040000000000ec
:10061000f4040400000000003600f800809fbe00d3
:10062000829fbe00849fbe00869fbe000000fa002d
:10063000004080000000e000020032000040800026
:100640000000010050822000104078008040e80047
:1006500050822000014878004082200011c0b30081
:10066000014878008460a9000080fa004f03be00b2
:100670004f02be004f01be004f00be003600f90021
:10068000004006003600f800809fbe00829fbe003a
:10069000849fbe00869fbe000000fa008020a90053
:1006a0000000eb00f30007000080fa004f03be00db
:1006b0004f02be004f01be004f00be003600f900e1
:1006c000004006003600f800809fbe00829fbe00fa
:1006d000849fbe00869fbe000000fa00ea0007006b
:1006e0008040a90010002000e20007000080fa000e
:1006f0004f03be004f02be004f01be004f00be00c0
:100700003600f900004006003600f800809fbe0069
:10071000829fbe00849fbe00869fbe000000fa003c
:100720008060a90020002000d20007000080fa00ad
:100730004f03be004f02be004f01be004f00be007f
:100740003600f900004006003600f800809fbe0029
:10075000829fbe00849fbe00869fbe000000fa00fc
:100760008080a90030002000c20007000080fa004d
:100770004f03be004f02be004f01be004f00be003f
:100780003600f900004006000040da000000fe00dc
:040790000000050060
:020000040000fa
:100794000000fa004c22ef0080d023007012880081
:1007a4000002280080128800004080000000e00061
:1007b40002003a0020422000240007008460a900bf
:1007c4009460a800408220008040eb00014878003b
:1007d4000080fa00000006000200fa00000f780012
:1007e4009e00780071128800408220008040eb0057
:1007f400014878000080fa00000006000000fa00ba
:10080400701280000080fa00000006000200fa0066
:10081400000f78009e00780061128800408220005a
:100824008040eb00014878000080fa0000000600d8
:100834000000fa00601280000080fa000000060048
:100844000000fa000080fa00000006000200fa002e
:10085400000f78009460a9009e0078000140880091
:100864009460a8000080fa00000006000000fa006e
:10087400408220008040eb00014878009460a8008a
:1008840051e2a8000080fa00000006000000fa000f
:1008940051e2a9009460a9000080fa00000006005b
:1008a4000200fa0040822000104f78001e407800b9
:1008b4000004e00003003200408220008040eb008e
:1008c400014878001e4078000080fa00000006000d
:1008d4000000fa0050822000104078000080fb00e5
:1008e4000080fa00000006000000fa005082200098
:1008f4008040eb00014878000080fa000000060008
:100904000000fa0000102300100888000621ef0000
:100914006821ef006a21ef006e21ef007021ef00e3
:100924007221ef007421ef007621ef007a21ef00ad
:100934007c21ef007e21ef00720020008007200060
:10094400a109200013102000804978008149780013
:10095400824978000001eb0060042000710520004a
:10096400031020008049780081497800824978008a
:100974000080fa00000006000000fa008421ef0065
:100984008e21ef009821ef0070592000000c8800a0
:100994000080eb00500c8800f03f2000a00c880081
:1009a4005620ef005820ef005a20ef006e20ef0091
:1009b4007020ef007220ef008621ef009021ef00fd
:1009c4009a21ef0070002000400c8800c0202f0006
:1009d400900c880070002000e00c88000080fa0071
:1009e400000006000000fa00200c80004900de0030
:1009f400614060000004a200614060000080fb00d0
:100a0400610060004900dd00210c80000190a1001c
:100a140001007000200c88000080fa00000006002d
:100a24000000fa0026000700404f200087ff07005f
:080a34008eff0700ffff3700f1
:020000040000fa
:100a3c0024080000020000008000000000080000f4
:100a4c0002000000800000000408000020000000ec
:100a5c00800000000208000002000000820000007c
:080a6c00ffff00000000000084
:020000040000fa
:100a74000200fa00000f78009e0078001140880000
:100a8400ffff37000000fa00408020008007780054
:100a9400c0812000000188000080fa0000000600e8
:100aa4000000fa0021058000f0ff280000806000ab
:100ab40000c0a000200588000080fa0000000600a5
:100ac4000000fa00acff0700f5ff07008cff0700e9
:0c0ad4002fff07000080fa000000060061
:020000040000fa
:020000040002f8
:04aff000ffff00005f
:020000040000fa
:020000040002f8
:04aff400fffe00005c
:020000040000fa
:020000040002f8
:04aff800bf3700005f
:020000040000fa
:020000040002f8
:04affc003f3f0000d3
:00000001FF
